{
  "contractName": "Init",
  "abi": [
    {
      "inputs": [],
      "name": "get_counter",
      "outputs": [
        {
          "internalType": "uint256",
          "name": "",
          "type": "uint256"
        }
      ],
      "stateMutability": "view",
      "type": "function"
    },
    {
      "inputs": [],
      "name": "set_counter",
      "outputs": [],
      "stateMutability": "nonpayable",
      "type": "function"
    }
  ],
  "bytecode": "0x608060405234801561000f575f80fd5b506101448061001d5f395ff3fe608060405234801561000f575f80fd5b5060043610610034575f3560e01c8063beec1a1e14610038578063ea66cf6d14610042575b5f80fd5b610040610060565b005b61004a610075565b6040516100579190610095565b60405180910390f35b60015f5461006e91906100db565b5f81905550565b5f8054905090565b5f819050919050565b61008f8161007d565b82525050565b5f6020820190506100a85f830184610086565b92915050565b7f4e487b71000000000000000000000000000000000000000000000000000000005f52601160045260245ffd5b5f6100e58261007d565b91506100f08361007d565b9250828201905080821115610108576101076100ae565b5b9291505056fea264697066735822122089fc94b27eefd23e69dab12178506d7d2bdb7d8765b673eac0280683c8defcaa64736f6c63430008150033",
  "immutableReferences": {},
  "source": "// SPDX-License-Identifier: MIT\npragma solidity ^0.8.0;\n\ncontract Init {\n    // states\n    uint counter;\n\n    // functions\n    // getter fn\n    function get_counter() public view returns (uint) {\n        return counter;\n    }\n\n    // setter fn\n    function set_counter() public {\n        counter = counter + 1;\n    }\n}\n",
  "sourcePath": "/workspace/blockchain-workshop/blockchain/contracts/init.sol",
  "compiler": {
    "name": "solc",
    "version": "0.8.21+commit.d9974bed.Emscripten.clang"
  },
  "schemaVersion": "3.4.16",
  "updatedAt": "2024-07-09T06:06:17.043Z",
  "devdoc": {
    "kind": "dev",
    "methods": {},
    "version": 1
  },
  "userdoc": {
    "kind": "user",
    "methods": {},
    "version": 1
  }
}