{
  "contractName": "Vault",
  "abi": [
    {
      "inputs": [],
      "name": "deposit",
      "outputs": [],
      "stateMutability": "payable",
      "type": "function",
      "payable": true
    },
    {
      "inputs": [
        {
          "internalType": "address",
          "name": "_user",
          "type": "address"
        }
      ],
      "name": "getVaultBalance",
      "outputs": [
        {
          "internalType": "uint256",
          "name": "",
          "type": "uint256"
        }
      ],
      "stateMutability": "view",
      "type": "function",
      "constant": true
    },
    {
      "inputs": [],
      "name": "withdraw",
      "outputs": [],
      "stateMutability": "nonpayable",
      "type": "function"
    }
  ],
  "bytecode": "0x608060405234801561001057600080fd5b50610431806100206000396000f3fe6080604052600436106100345760003560e01c80633ccfd60b14610039578063d0e30db014610050578063d3d7c0021461005a575b600080fd5b34801561004557600080fd5b5061004e610097565b005b6100586101ab565b005b34801561006657600080fd5b50610081600480360381019061007c919061025f565b610202565b60405161008e91906102f7565b60405180910390f35b60008060003373ffffffffffffffffffffffffffffffffffffffff1673ffffffffffffffffffffffffffffffffffffffff1681526020019081526020016000205490506000811161011d576040517f08c379a0000000000000000000000000000000000000000000000000000000008152600401610114906102d7565b60405180910390fd5b60008060003373ffffffffffffffffffffffffffffffffffffffff1673ffffffffffffffffffffffffffffffffffffffff168152602001908152602001600020819055503373ffffffffffffffffffffffffffffffffffffffff166108fc829081150290604051600060405180830381858888f193505050501580156101a7573d6000803e3d6000fd5b5050565b346000803373ffffffffffffffffffffffffffffffffffffffff1673ffffffffffffffffffffffffffffffffffffffff16815260200190815260200160002060008282546101f99190610323565b92505081905550565b60008060008373ffffffffffffffffffffffffffffffffffffffff1673ffffffffffffffffffffffffffffffffffffffff168152602001908152602001600020549050919050565b600081359050610259816103e4565b92915050565b60006020828403121561027157600080fd5b600061027f8482850161024a565b91505092915050565b6000610295601683610312565b91507f4e6f2062616c616e636520746f207769746864726177000000000000000000006000830152602082019050919050565b6102d1816103ab565b82525050565b600060208201905081810360008301526102f081610288565b9050919050565b600060208201905061030c60008301846102c8565b92915050565b600082825260208201905092915050565b600061032e826103ab565b9150610339836103ab565b9250827fffffffffffffffffffffffffffffffffffffffffffffffffffffffffffffffff0382111561036e5761036d6103b5565b5b828201905092915050565b60006103848261038b565b9050919050565b600073ffffffffffffffffffffffffffffffffffffffff82169050919050565b6000819050919050565b7f4e487b7100000000000000000000000000000000000000000000000000000000600052601160045260246000fd5b6103ed81610379565b81146103f857600080fd5b5056fea264697066735822122089800e77691fe63f0a33d8167e746b0deceff1774dcfd182113878a12b3592b664736f6c63430008000033",
  "immutableReferences": {},
  "source": "// SPDX-License-Identifier: MIT\npragma solidity ^0.8.0;\n\ncontract Vault {\n    mapping(address => uint) vaultBalances;\n    \n    function deposit() public payable {\n        vaultBalances[msg.sender] += msg.value;\n    }\n\n\n    function getVaultBalance(address _user) public view returns (uint) {\n        return vaultBalances[_user];\n    }\n\n    function withdraw() public {\n        uint userBalance = vaultBalances[msg.sender];\n        require(userBalance > 0, \"No balance to withdraw\");\n        \n        vaultBalances[msg.sender] = 0;\n        payable(msg.sender).transfer(userBalance);\n    }\n}\n",
  "sourcePath": "/workspace/blockchain-workshop/blockchain/contracts/Vault.sol",
  "compiler": {
    "name": "solc",
    "version": "0.8.0+commit.c7dfd78e.Emscripten.clang"
  },
  "schemaVersion": "3.4.16",
  "updatedAt": "2024-07-09T09:37:38.857Z",
  "networkType": "ethereum",
  "devdoc": {
    "kind": "dev",
    "methods": {},
    "version": 1
  },
  "userdoc": {
    "kind": "user",
    "methods": {},
    "version": 1
  }
}